:1000000012C0189518951895189518951895189563
:1000100018951895189593C81895189518951895CA
:100020001895189518958FE58DBFC0E4E8E34E2E1E
:1000300084E08EBFD4E0F4E05F2EEEEFF3E0A0E6C4
:10004000B0E0A89584B7082E877F84BF88E1992700
:1000500081BD91BD88278D933197E9F783E389B9F5
:1000600080E080BD88E18AB920DA662486E880BD18
:10007000F89457988FEF84BB8FEF85BB82E081BBEC
:100080008FEF82BB80E080939E02AFE9B2E08827C9
:100090008C9380E08093B402A5EBB2E088278C9328
:1000A000A5EDB2E088278C93AFEEB2E0E8EDF6E183
:1000B0008FDAA9EFB2E0EAEDF6E18ADAA1E0B3E087
:1000C000EAEDF6E185DAA5E0B3E088278C93A9E1B3
:1000D000B3E088278C93ADE1B3E0ECEDF6E178DA9C
:1000E000A3E2B3E088278C9380E080932703A5ECFC
:1000F000B2E088278C93A2EEB2E088278C93A4EF1D
:10010000B2E0E8EDF6E164DAADEFB2E0EAEDF6E197
:100110005FDAA3E0B3E0EAEDF6E15ADAAFE0B3E08C
:1001200088278C93ABE1B3E088278C93A0E2B3E0FF
:10013000ECEDF6E14DDAA5E2B3E088278C9380E0A0
:1001400080932803A9E2B3E088278C93ABE2B3E065
:10015000E0EEF6E13DDAA1E3B3E088278C93A4E674
:10016000B3E0E6EEF6E134DA80E08093660380E007
:100170008093670380E08093680381E080939A0214
:1001800000919A020A3010F009F021C0AAE9B2E009
:100190000D91112746E050E011DAAAE5B0E0A00F7A
:1001A000B11F88278C93AAE9B2E00D91112743E390
:1001B00050E004DAA9E6B0E0A00FB11F88278C93C5
:1001C000AAE9B2E08C918F5F8C9308F4D9CF81E0DB
:1001D00080939A0281E080939B0280E080939D024D
:1001E00080E080939C0284E690E0D9D9E4E0F2E0DC
:1001F00080E4A9D958E0C895802D9FD931965A95A9
:10020000D1F704C01F11151117171F20E4E2F2E007
:1002100088E499D958E0C895802D8FD931965A95A0
:10022000D1F704C01F11171717111F20E4E4F2E0E3
:1002300080E589D958E0C895802D7FD931965A95A7
:10024000D1F704C01F13151515131F20E4E6F2E0C3
:1002500088E579D958E0C895802D6FD931965A959F
:10026000D1F704C01F11151113151F20E4E8F2E0A7
:1002700080E669D958E0C895802D5FD931965A95A6
:10028000D1F704C01F111B1B1B1B1F20E4EAF2E067
:1002900088E659D958E0C895802D4FD931965A959E
:1002A000D1F704C020202020201F1F20E4ECF2E022
:1002B00080E749D958E0C895802D3FD931965A95A5
:1002C000D1F704C0202020201F1F1F20E4EEF2E001
:1002D00088E739D958E0C895802D2FD931965A959D
:1002E000D1F704C02020201F1F1F1F20CAD88CE078
:1002F0002AD9E8EEF6E1B9D8C2D8EEEFF6E1B5D8E2
:10030000BAD8E4E1F7E1B1D8B8D8EAE2F7E1ADD87C
:1003100083ED1FE0C5D8E0E4F7E195D88DE099D8EA
:1003200082E390E03CD9E0E4F7E18DD88DE091D80C
:100330008AEF90E034D97894579AE6E4F7E183D8CD
:100340008DE087D88AEF90E02AD9E6E4F7E17BD800
:100350008DE07FD88AEF90E022D9BBD1ABE2B3E049
:100360007ED880ED97E01BD983ED11E099D8EAE4BF
:10037000F7E17BD883ED17E093D8E0E7F2E11FD8EF
:1003800021D8AFE9B2E024D91AD8AFE9B2E0E0E66B
:10039000F7E18FD909F411C0AFE9B2E04ED88DE092
:1003A00058D88FEFCAD884E690E0F9D892D10AD80D
:1003B000AFE9B2E00DD903D8E8CF63D88AD18FE78F
:1003C00011E06ED8EFEEF2E003E0A0E2B4E063D912
:1003D00044D8EAEDF6E149D88FE714E061D8EAEDB8
:1003E000F6E143D8A9E1B3E0E8E6F7E162D909F024
:1003F00008C0E5E0F3E008E0A0E2B4E04CD92DD875
:100400003EC0A4E6B3E0EAE6F7E153D981E009F0A3
:1004100080E08F9300916603003081E009F080E076
:100420009F918923882309F408C0E5E0F3E008E000
:10043000A0E2B4E030D911D822C0ADE1B3E0ECEDD8
:10044000F6E137D909F004C0ECE6F7E10ED817C0A1
:10045000E6E7F7E10AD8E8ECF2E1A7E2B3E08C9135
:100460009927BFD8AFE9B2E0B3D8EFE9F2E005E0F1
:10047000A0E2B4E010D9F1D7ECEDF6E1F6D78FE7C2
:100480001DE00ED8EAEDF6E1F0D7E3E2F3E001E09B
:10049000A0E2B4E000D9E1D7E1E0F3E001E0A0E2BE
:1004A000B4E0F9D8DAD7EDE1F3E002E0A0E2B4E09D
:1004B000F2D8D3D7EAEDF6E1D8D78FE712E1F0D73B
:1004C00000916703003009F006C0EAEDF6E1CDD7F0
:1004D00081E033D803C0ECEDF6E1C7D78FE714E134
:1004E000DFD700916603003009F003C080E025D813
:1004F00003C0EAEDF6E1B9D78FEB11E0D1D7E9EF10
:10050000F2E001E0A0E2B4E0C6D8A7D7EAEDF6E158
:10051000ACD78FEB14E0C4D7E5EBF2E00AE0A0E241
:10052000B4E0B9D89AD7EAEDF6E19FD78FEB1EE099
:10053000B7D7EAEDF6E199D7E5EDF2E006E0A0E203
:10054000B4E0A9D88AD7C5D083E911E0A9D7E4EFF0
:10055000F2E003E0A0E2B4E09ED87FD7EAEDF6E156
:1005600084D783E914E09CD7EAEDF6E17ED7ABE1CE
:10057000B3E0E8E6F7E19DD809F008C0EFE0F3E06A
:1005800008E0A0E2B4E087D868D73EC0A4E6B3E0B4
:10059000EAE6F7E18ED881E009F080E08F930091E0
:1005A0006603013081E009F080E09F918923882370
:1005B00009F408C0EFE0F3E008E0A0E2B4E06BD893
:1005C0004CD722C0A0E2B3E0ECEDF6E172D809F01E
:1005D00004C0ECE6F7E149D717C0E6E7F7E145D7F5
:1005E000E8ECF2E1A8E2B3E08C919927FAD7AFE901
:1005F000B2E0EED7EFE9F2E005E0A0E2B4E04BD8DC
:100600002CD7ECEDF6E131D783E91DE049D7EAEDCF
:10061000F6E12BD7E5E2F3E001E0A0E2B4E03BD85D
:100620001CD7E3E0F3E001E0A0E2B4E034D815D752
:10063000E0E2F3E002E0A0E2B4E02DD80ED7EAED6C
:10064000F6E113D783E912E12BD70091670301305C
:1006500009F006C0EAEDF6E108D781E06ED703C0E5
:10066000ECEDF6E102D783E914E11AD700916603B5
:10067000013009F003C080E060D703C0EAEDF6E185
:10068000F4D683ED11E00CD7EDEFF2E001E0A0E24B
:10069000B4E001D8E2D6EAEDF6E1E7D683ED14E066
:1006A000FFD6E5ECF2E00AE0A0E2B4E0F4D7D5D65C
:1006B000EAEDF6E1DAD683ED1EE0F2D6EAEDF6E1F8
:1006C000D4D6E2EEF2E006E0A0E2B4E0E4D7C5D68C
:1006D00075CE00919C02003010F009F001C02EC5CB
:1006E000ABE9B2E00D91112746E050E067D7AAE5EB
:1006F000B0E0A00FB11FE6EEF6E1DBD709F001C0D4
:10070000EEC4EAE7F7E1D5D709F001C0E8C4ECE7A9
:10071000F7E1CFD709F001C0E2C4EEE7F7E1C9D7AE
:1007200009F006C0A4E6B3E0E2E8F7E151D7D7C488
:10073000E4E8F7E1BED709F006C0A4E6B3E0EAE6D4
:10074000F7E146D7CCC4E8E8F7E1B3D709F006C033
:10075000A4E6B3E0ECE8F7E13BD7C1C4E6E4F7E197
:10076000A8D709F00FC0EBE9F2E00191112743E3AC
:1007700050E024D7E9E6F0E0E00FF11FABE2B3E090
:100780007ED7ADC4EEE8F7E194D709F00FC0EBE9EE
:10079000F2E00191112743E350E010D7E9E6F0E0E1
:1007A000E00FF11FA9E2B3E06AD799C4E2E9F7E1EB
:1007B00080D709F054C0EBE9F2E00191112743E33F
:1007C00050E0FCD6E9E6F0E0E00FF11FA1E3B3E072
:1007D00056D7A1E3B3E067D7082F033009F03EC036
:1007E000E1E3F3E001E0AFE9B2E055D7AFE9B2E011
:1007F00014D7A8E6B3E00C93A1E3B3E054D7EA2FF3
:10080000FB2F3297F0400FEFAFE9B2E044D7AFE9EA
:10081000B2E003D7A4EBB2E00C930091B402003035
:1008200009F006C0AFE9B2E0E6E9F7E1D1D608C0C9
:10083000033009F005C0AFE9B2E0EAE9F7E1C8D654
:10084000EFE9F2E0A8E6B3E00D911C9145E050E03D
:10085000B5D6AFEEB2E0A00FB11F11D740C4EEE99C
:10086000F7E127D709F043C0EBE9F2E00191112746
:1008700043E350E0A3D6E9E6F0E0E00FF11FA1E387
:10088000B3E0FDD6A1E3B3E00ED7082F043009F0A2
:1008900006C0A1E3B3E0C0D5EAEDF6E199D6A1E345
:1008A000B3E001D7082F053009F020C0E1E3F3E001
:1008B00001E0AFE9B2E0EFD6AFE9B2E0AED6A8E62C
:1008C000B3E00C93A1E3B3E0EED6EA2FFB2F34970D
:1008D000F0400FEFA8E6B3E00D911C9145E050E029
:1008E0006DD6AFEEB2E0A00FB11FD5D6F8C3E2EAE5
:1008F000F7E1DFD609F033C0EBE9F2E0019111270F
:1009000043E350E05BD6E9E6F0E0E00FF11FA1E33E
:10091000B3E0B5D6A1E3B3E0C6D6082F033009F0A3
:100920001DC0E1E3F3E001E0AFE9B2E0B4D6AFE926
:10093000B2E073D6A7E6B3E00C93A1E3B3E0B3D67D
:10094000EA2FFB2F3297F0400FEFAFE9B2E0A3D6CA
:10095000AFE9B2E062D6A6E6B3E00C93C0C3E6EA24
:10096000F7E1A7D609F05DC0EBE9F2E001911127AC
:1009700043E350E023D6E9E6F0E0E00FF11FA1E306
:10098000B3E07DD6A1E3B3E08ED6082F033009F0A3
:1009900047C0E1E3F3E001E0AFE9B2E07CD6AFE9C4
:1009A000B2E03BD6A8E6B3E00C93A1E3B3E07BD67C
:1009B000EA2FFB2F3297F0400FEFAFE9B2E06BD692
:1009C000AFE9B2E02AD6A4EBB2E00C930091B402F6
:1009D000003009F006C0AFE9B2E0EAEAF7E1F8D585
:1009E00011C0013009F006C0AFE9B2E0ECEAF7E16E
:1009F000EFD508C0023009F005C0AFE9B2E0EEEA79
:100A0000F7E1E6D5EFE9F2E0A8E6B3E00D911C913D
:100A100044E050E0D3D5A9EFB2E0A00FB11F2FD62C
:100A20005EC3E0EBF7E145D609F052C0EBE9F2E036
:100A30000191112743E350E0C1D5E9E6F0E0E00F72
:100A4000F11FA1E3B3E01BD6A1E3B3E02CD6082F3E
:100A5000033009F03CC0E1E3F3E001E0AFE9B2E0CC
:100A60001AD6AFE9B2E0D9D5A8E6B3E00C93A1E37A
:100A7000B3E019D6EA2FFB2F3297F0400FEFAFE922
:100A8000B2E009D6AFE9B2E0C8D5A4EBB2E00C936E
:100A90000091B402013009F007C082E0AFE9B2E092
:100AA0008D9388278C9305C0AFE9B2E0EAEDF6E1BB
:100AB0008FD5EFE9F2E0A8E6B3E00D911C9142E09A
:100AC00050E07CD5A1E0B3E0A00FB11FD8D507C39B
:100AD000E4EBF7E1EED509F09DC0EBE9F2E001911E
:100AE000112743E350E06AD5E9E6F0E0E00FF11F9B
:100AF000A1E3B3E0C4D5A1E3B3E0D5D5082F04301A
:100B000009F087C0E1E3F3E001E0AFE9B2E0C3D56B
:100B1000AFE9B2E082D5A8E6B3E00C93A1E3B3E07D
:100B2000C2D5EA2FFB2F3397F0400FEFAFE9B2E0C9
:100B3000B2D5AFE9B2E071D5002F41E0040FA4EBCC
:100B4000B2E00C93AFE9B2E0E8EBF7E141D585E024
:100B5000AFE9B2E08F9360D48F918D9388278C9307
:100B600085E0AFE9B2E08F9357D48F918D938827BA
:100B70008C9386E0AFE9B2E08F934ED48F918D9342
:100B800088278C9386E0AFE9B2E08F9345D48F91AC
:100B90008D9388278C9387E0AFE9B2E08F933CD4A4
:100BA0008F918D9388278C9387E0AFE9B2E08F9384
:100BB00033D48F918D9388278C93EFE9F2E00091E5
:100BC000B402AFE9B2E067D508E04091B402041B7B
:100BD000A4EBB2E00C930091B402003010F009F0E5
:100BE00001C009C00091B4020F93AFE9B2E00F91C8
:100BF00013D480E2EAD3EFE9F2E0A8E6B3E00D9186
:100C00001C914AE050E0DAD4A5E0B3E0A00FB11F98
:100C100036D565C2ECEBF7E14CD509F03BC0EBE90A
:100C2000F2E00191112743E350E0C8D4E9E6F0E097
:100C3000E00FF11FA1E3B3E022D5A1E3B3E033D588
:100C4000082F033009F025C0E1E3F3E001E0AFE94C
:100C5000B2E021D5AFE9B2E0E0D4A8E6B3E00C936E
:100C6000A1E3B3E020D5EA2FFB2F3297F0400FEF3E
:100C7000AFE9B2E010D5EFE9F2E0A8E6B3E00D91FC
:100C80001C9142E050E09AD4A9E1B3E0A00FB11F5B
:100C9000F6D425C2E0ECF7E10CD509F020C2EBE96F
:100CA000F2E00191112743E350E088D4E9E6F0E057
:100CB000E00FF11FA1E3B3E0E2D4A1E3B3E0F3D48A
:100CC000082F0D3209F00BC2E1E3F3E001E0AFE9D8
:100CD000B2E0E1D4AFE9B2E0A0D4A8E6B3E00C936F
:100CE00085E0E1E3F3E003E00A93A8E6B3E00D91C9
:100CF0001C9140E150E062D4A5EBB2E0A00FB11F1F
:100D0000C3D4A8E6B3E00D911C9140E150E056D465
:100D1000A5EBB2E0A00FB11F7FD3E4ECF7E158D40C
:100D200088E0E1E3F3E003E00A93A8E6B3E00D9185
:100D30001C9140E150E042D4A5EBB2E0A00FB11FFE
:100D40006BD3A2D4A8E6B3E00D911C9140E150E032
:100D500035D4A5EBB2E0A00FB11F5ED3E4ECF7E110
:100D600037D48BE0E1E3F3E002E00A93A8E6B3E0D6
:100D70000D911C9140E150E021D4A5EBB2E0A00F11
:100D8000B11F4AD381D481E1E1E3F3E001E00A93AA
:100D9000AFE9B2E079D4AFE9B2E03FD4A4EBB2E07E
:100DA0000C9383E1E1E3F3E001E00A93AFE9B2E001
:100DB0006BD4AFE9B2E0E8E6F7E17BD409F015C007
:100DC000A4EBB2E08C91865F8C9383E0A8E6B3E05D
:100DD0000D911C9142E050E0F1D3A3E2B3E0A00FEB
:100DE000B11F8D9388278C930FC080E2A8E6B3E0F3
:100DF0000D911C9142E050E0E1D3A3E2B3E0A00FDB
:100E0000B11F8D9388278C93AFE9B2E0E6ECF7E150
:100E1000DFD30091B402013009F01EC0AFE9B2E0A7
:100E2000EEECF7E1D5D387E2E1E3F3E001E00A93EA
:100E3000AFE9B2E0F1D228D4AFE9B2E0EDD2E4EC10
:100E4000F7E1C6D388E2E1E3F3E003E00A93AFE918
:100E5000B2E0E2D219D474C0023009F01EC0AFE98A
:100E6000B2E0E0EDF7E1B4D387E2E1E3F3E001E0E3
:100E70000A93AFE9B2E0D0D207D4AFE9B2E0CCD266
:100E8000E4ECF7E1A5D388E2E1E3F3E003E00A93C1
:100E9000AFE9B2E0C1D2F8D353C0033009F006C0C5
:100EA000AFE9B2E0E2EDF7E193D34AC00B3009F0CD
:100EB0001EC0AFE9B2E0E0EDF7E18AD387E2E1E3FB
:100EC000F3E001E00A93AFE9B2E0A6D2DDD3AFE9E7
:100ED000B2E0A2D2E4ECF7E17BD388E2E1E3F3E015
:100EE00003E00A93AFE9B2E097D2CED329C00C3029
:100EF00009F01EC0AFE9B2E0EEECF7E169D387E29A
:100F0000E1E3F3E001E00A93AFE9B2E085D2BCD3BC
:100F1000AFE9B2E081D2E4ECF7E15AD388E2E1E351
:100F2000F3E003E00A93AFE9B2E076D2ADD308C0B4
:100F30000D3009F005C0AFE9B2E0EAEDF7E148D3C2
:100F4000EFE9F2E0A8E6B3E00D911C914DE050E02E
:100F500035D3A5EDB2E0A00FB11F91D3A8E6B3E061
:100F60000D911C9143E050E029D3ADE1B3E0A00F17
:100F7000B11FECEDF6E12CD385E1E1E3F3E001E014
:100F80000A93AFE9B2E080D3AFE9B2E0E8E6F7E177
:100F900090D309F034C0A8E6B3E00D911C9143E072
:100FA00050E00CD3ADE1B3E0A00FB11FEAEDF6E1E4
:100FB0000FD384E0A8E6B3E00D911C9143E050E02C
:100FC000FDD2ADE1B3E0A00FB11F8F9325D28F9179
:100FD0008D9388278C938BE1E1E3F3E002E00A93A1
:100FE000AFE9B2E051D3AFE9B2E017D3A8E6B3E07E
:100FF000AD90BB24A7E2B3E0AA0DBB1D0C9387E123
:10100000E1E3F3E001E00A93AFE9B2E03DD3AFE9F9
:10101000B2E0E8E6F7E14DD309F035C081E0A8E69B
:10102000B3E00D911C9143E050E0C8D2ADE1B3E0D4
:10103000A00FB11F8D9388278C9384E0A8E6B3E0BE
:101040000D911C9143E050E0B9D2ADE1B3E0A00FA7
:10105000B11F8F93E1D18F918D9388278C9382E27A
:10106000E1E3F3E002E00A93AFE9B2E00DD3AFE9C8
:10107000B2E0D3D2A8E6B3E0AD90BB24A7E2B3E0E0
:10108000AA0DBB1D0C9389E1E1E3F3E001E00A93B3
:10109000AFE9B2E0F9D2AFE9B2E0E8E6F7E109D3AF
:1010A00009F00FC082E0A8E6B3E00D911C9142E088
:1010B00050E084D2A1E0B3E0A00FB11F8D93882748
:1010C0008C93A8E6B3E00D911C9142E050E076D2FB
:1010D000A9E1B3E0A00FB11FE8EDF6E179D2ABE9E9
:1010E000B2E00D91112746E050E068D2AAE5B0E0E9
:1010F000A00FB11F88278C93ABE9B2E00D911127A7
:1011000043E350E05BD2A9E6B0E0A00FB11F88270F
:101110008C93ABE9B2E08C918F5F8C9300919B0232
:101120000A3010F009F001C003C081E080939B02F7
:1011300080919C02815080939C02CBCA08950F92AB
:101140001F922F923F924F925F927F92AF92BF92E7
:101150000F931F932F933F934F935F936F937F93BF
:101160008F939F93AF93BF93CF93DF93EF93FF93AF
:101170008FB78F9358D1AEE9B2E08C9300919E0265
:10118000003209F004C081E080939D0253C00D300D
:1011900009F022C0AAE9B2E08C918F5F8C93009194
:1011A0009A020A3010F009F001C003C081E0809378
:1011B0009A02ACE9B2E08C918F5F8C9300919C0213
:1011C000093010F009F001C003C089E080939C024F
:1011D00080E080939D022EC000919D02003009F0B6
:1011E00015C0AEE9B2E08C91AAE9B2E00D911127E9
:1011F00046E050E0E3D1AAE5B0E0A00FB11F8F9325
:101200000BD18F918D9388278C9314C0AEE9B2E0F7
:101210008C91AAE9B2E00D91112743E350E0CED1C1
:10122000A9E6B0E0A00FB11F8F93F6D08F918D93F8
:1012300088278C938F918FBFFF91EF91DF91CF9192
:10124000BF91AF919F918F917F916F915F914F91DE
:101250003F912F911F910F91BF90AF907F905F9022
:101260004F903F902F901F900F901895F894FFCFBC
:10127000525800534320302C3000534320312C303F
:1012800000534D2030005043203000564D43203055
:10129000004D43203000425546203000534D203150
:1012A000005043203100564D432031004D43203142
:1012B000004255462031004243004149203100544C
:1012C00048455F454E4400002020302E300020204D
:1012D000302E30002036372E30002037312E3900A6
:1012E0002037342E34002037372E30002037392E67
:1012F00037002038322E35002038352E3400203883
:10130000382E35002039312E35002039342E380062
:101310002039372E34003130302E30003130332E2A
:1013200035003130372E32003131302E3900313135
:10133000342E38003131382E38003132332E30001F
:101340003132372E33003133312E38003133362EDF
:1013500035003134312E33003134362E3200313500
:10136000312E34003135362E37003136322E3200F0
:101370003136372E39003137332E38003137392E98
:1013800039003138362E32003139322E38003230C1
:10139000332E35003231302E37003231382E3100C5
:1013A0003232352E37003233332E36003234312E7E
:1013B00038003235302E33002031373530008E2E54
:1013C0009F2E0895E82DF92D08958D930A95E9F73C
:1013D00088278C93089504D0F1D000FC0CD0089598
:1013E0000024E89457FF02C009D0689400F80BD09D
:1013F00010F80124089502D009D008955095409521
:101400004F5F5F4F0895E89417FF0895009510957A
:101410000F5F1F4F689408958F938D918823E9F78C
:1014200011978F91089588275F9B089500C05F9B57
:10143000FECF8CB10895A0E2B4E08D91882311F025
:1014400008D0FBCF0895C9D0802D11F002D0FBCF7A
:1014500008955D9BFECF8CB90895A0E2B4E08D9114
:10146000882311F06AD0FBCF0895B7D0802D11F0FA
:1014700064D0FBCF089584E966C084ED64C080EC3D
:1014800062C081E060D00ED080E85DC08FE721307F
:1014900039F08FEB223021F083E9233009F083ED1E
:1014A000810F51C083E099277AC08AEF90E077D00E
:1014B000A39AA29AA19AA09AA59AA49AAC9885E018
:1014C00090E06DD0AD98AB98AA98A99AA89AAD9AD9
:1014D000EF93FF93E4ECF0E056D0FF91EF91AD98DD
:1014E0005BD0AD9AEF93FF93E4ECF0E04CD0FF912A
:1014F000EF91AD9851D0AD9AEF93FF93E4ECF0E00B
:1015000042D0FF91EF91AD9847D0A898AD9AEF9354
:10151000FF93E4ECF0E037D0FF91EF91AD983CD031
:1015200084E211D089E00FD080E20DD088E20BD0A8
:101530008EE009D086E007D00895AC9A829505D058
:1015400004D02AD00895AC98F9CF859510F4A89AC4
:1015500001C0A898859510F4A99A01C0A99885950D
:1015600010F4AA9A01C0AA98859510F4AB9A01C00C
:10157000AB98AD9AEF93FF93E4ECF0E004D0FF91C9
:10158000EF91AD9808953197F1F70895689462F856
:101590000895E89462F8089581E090E000C0EF9328
:1015A000FF93EE27E82BE92B31F0E0EDF7E03197E0
:1015B000F1F70197D1F7FF91EF9108950F92B801DC
:1015C000469F8001479F100D569F100D0F90089564
:1015D00004D00D920020E1F70895C89531960020BF
:1015E0000895882311F4992321F0F7DFF1F701978B
:1015F000E1F70895040F151F261F371F0895000FE8
:10160000111F221F331F08950095109520953095C6
:101610000F5F1F4F2F4F3F4F08950027112722279D
:1016200033271DD08A3328F4803318F005D015D025
:10163000F9CF0EF4E9CF089580538F93402F512FA7
:10164000622F732FDCDFDBDFD5DFD9DF8F919927A6
:10165000080F191F291F391F08958D910895E894C7
:10166000FCDF8032E9F38B32D9F38930C9F38D3254
:1016700011F46894F2CF089588278D93089581918D
:101680008D938823E1F7089509919191992351F061
:101690008A95D9F7319781918D930A9519F088230E
:1016A000D1F70895E9CF8FEF83959D919923E1F7C5
:1016B0000895689401C0E894AF93BF938D9116F09C
:1016C000919102C08ADF902D891718F011F48823B8
:1016D000A9F7BF91AF9108953000200020200000AD
:1016E000756E6B776E003F00544D2D5637204C437E
:1016F0004420566572732E20312E3036000041543E
:101700006D656761382C20396B362C20496E742E3C
:1017100052430000202863292030342F32303039E2
:10172000204F45394D4B56200000205472616E7396
:101730006365697665723A20202020202020000011
:1017400041492030000049440000496E69743A2044
:1017500020202020202020202020202020200000C9
:101760005448455F454E440031005400202020205D
:10177000202020200000202020004E00450052584C
:101780000000520054580000545400002100414908
:101790000000564D43005B565D005B435D004D43CA
:1017A0000000424300005043000048004D004C0040
:1017B00050470000534D00005F5F00004259000099
:1017C000425546002E0020302E30303000002B00D5
:1017D0002D003D372E363030000023372E36303086
:0217E000000007
:00000001FF
